:03000000020715DF
:0C071500787FE4F6D8FD75813B020006F9
:1006B100EF1FAC0670011E4C600B007D027CC7DC95
:0506C100FEDDFC80EBF2
:0106C6002211
:09072D00007F027E3DDEFEDFFCD0
:0107360022A0
:0E070700E4F5E7F5E5F5E675E3FF75E4FF229E
:10069400AD07AC06E42DFD74203CF5E38DE475E76D
:0D06A4008275E50375E64675E6B9020707A5
:10065500AD07AC06E42DFD74203CF5E38DE475E7AC
:100665008275E50175E64675E6B9120707AFE22220
:10067500AB07AA06E42BFB74203A8DE2F5E38BE485
:0F06850075E78275E50275E64675E6B902070767
:0C072100D2AFD2A8D288438901D2842232
:1005B300D200752BDC752CD812052BC200752BEEDF
:1005C300752C6C12052BAF2512056DAF2612056D28
:1005D300AF2712056DAF2812056D120523C20075F2
:0805E3002B63752CC002052BEF
:02056D008F29D4
:10056F00E4F52AF52AAF2AEF3395E0FEC3EF94089E
:10057F00EE64809480502C120523AF2AA807E5293A
:10058F00088002C313D8FC30E00AC200752BF9753E
:10059F002CA28008C200752BFD752CD012052B05DF
:0305AF002A80C2DD
:0105B2002226
:08052300D200752BFD752CBC04
:10052B00E52BF58C852C8AC28DD28C200005208D75
:10053B002A80FBC284208D23208D20D284208D1B0A
:10054B00208D18208D15208D12208D0F208D0C20C5
:10055B008D09208D06208D03308DD8C28CC28DD293
:02056B008422E8
:1002FA00753800753900753A327E007F047D007BBF
:10030A00007A0079321202CE7F057E001206B120F1
:10031A00B27A30B2FD7F037E001206B130B26DE4CC
:10032A00F537C3E5379404748094805049E4F53B6B
:10033A00F536C3E536940874809480501F20B2FDC8
:10034A0030B2FD12072DA2B2E433FFAE36A806087A
:10035A008002C333D8FC423B053680D6AB38AA3973
:10036A00A93AE53B1202BC7401253AF53AE435395B
:10037A00F539053780ACE535F46534600F7E007FCA
:10038A00047D007B007A0079321202CE7B007A006B
:02039A007932B6
:01039C00223E
:10000600D2AF1206F31207217E007F047D007B002B
:100016007A0079081202CEE4FF1205EB780C7C0018
:100026007D007E007F0412027D7F041205EB7810AE
:100036007C007D007E007F0412027D7F081205EBA6
:1000460078147C007D007E007F0412027D7E007F96
:10005600047DFF7B007A0079211202CE78327C0083
:100066007D007B007A0079217E007F0412027D12DA
:10007600039D20B5617F1E7E001206B120B557C2D2
:10008600AFE50A602C780C7C001204BE7E007F046B
:100096007D007B007A0079081202CEE4F5907F2C71
:1000A6007E011206B17590FF7F2C7E011206B1808B
:1000B6001678257C007D007B007A00790C7E007F17
:1000C6000412027D1205B3E4F5907F2C7E01120620
:1000D600B17590FFD2AF20B4617F1E7E001206B1CB
:1000E60020B457C2AFE50A602C78107C001204BE1B
:1000F6007E007F047D007B007A0079081202CEE440
:10010600F5907F2C7E011206B17590FF7F2C7E0143
:100116001206B1801678257C007D007B007A007976
:10012600107E007F0412027D1205B3E4F5907F2C49
:100136007E011206B17590FFD2AF30B303020053B1
:100146007F1E7E001206B130B303020053C2AFE534
:100156000A602C78147C001204BE7E007F047D00A9
:100166007B007A0079081202CEE4F5907F2C7E019E
:100176001206B17590FF7F2C7E011206B1801678AB
:10018600257C007D007B007A0079147E007F0412B6
:10019600027D1205B3E4F5907F2C7E011206B1753F
:0701A60090FFD2AF020053ED
:03000300020438BC
:10043800C0E0C0F0C083C082C0D075D000C000C08A
:0D04480001C002C003C004C005C006C0070B
:10045500C2A81202FA782E7C007D007E007F04126D
:10046500027DE53060367590007F2C7E011206B165
:100475007590FF78327C007D007B007A00792E7EB6
:10048500007F0412027D12039D78087C007D007BAD
:0E049500007A00792E7E007F0412027DD2A82C
:1004A300D007D006D005D004D003D002D001D000AD
:0B04B300D0D0D082D083D0F0D0E03257
:0205EB008F255A
:1005ED007E001206558F26E5252401FFE433FE1209
:1005FD0006558F27E5252402FFE433FE1206558F9D
:10060D0028E5252403FFE433FE1206558F297B00D0
:04061D007A007926C0
:0106210022B6
:0F04BE007D007B007A0079087E007F0412027DAA
:1004CD0012069478257C007D007B007A00790C7EE5
:1004DD00007F0412027DE4F529F52A120622782503
:1004ED007C007D007B007A0079107E007F04120273
:1004FD007D752900752A0412062278257C007D0061
:10050D007B007A0079147E007F0412027D7529002C
:06051D00752A0802062207
:10062200AD25AF2AAE29120675E52A2401FFE4356D
:1006320029FEAD26120675E52A2402FFE43529FEBD
:10064200AD27120675E52A2403FFE43529FEAD28FD
:0306520002067528
:1006DD00637573746F6D3A30780020636F64653A9B
:0606ED003078000D0A0048
:1006F300D2AF438920758DFD758BFDD28EC29FD2FB
:040703009ED29C22C4
:1006C7001202A36010F5993099FDC299740129F9B6
:0606D700E43AFA80EB2278
:080737008F993099FDC299224F
:10039D007536007537007538327BFF7A0679DD12B8
:1003AD0006C7E4F539F53AE53A6402453970097B3B
:1003BD00FF7A0679E71206C77D017C00AB36AA37B6
:1003CD00A9381202A3FFED25E025E0FEF8EF088025
:1003DD0002C313D8FC540FFEFB7A00D3E49B748048
:1003ED00F898500EEB9409748094805005EE2430EB
:1003FD008003EE2437FF120737ED1D70011CBCFF83
:10040D00BBBDFFB874012538F538E43537F5370530
:10041D003AE53A70020539C39404E5396480948055
:0B042D0040857BFF7A0679F00206C7CD
:1001AD00E709F608DFFA8046E709F208DFFA803E34
:1001BD0088828C83E709F0A3DFFA8032E309F60821
:1001CD00DFFA8078E309F208DFFA807088828C8389
:1001DD00E309F0A3DFFA806489828A83E0A3F6083D
:1001ED00DFFA805889828A83E0A3F208DFFA804C17
:1001FD0080D280FA80C680D4806980F280338010EE
:10020D0080A680EA809A80A880DA80E280CA803356
:10021D0089828A83ECFAE493A3C8C582C8CCC583CE
:10022D00CCF0A3C8C582C8CCC583CCDFE9DEE7809E
:10023D000D89828A83E493A3F608DFF9ECFAA9F01D
:10024D00EDFB2289828A83ECFAE0A3C8C582C8CC73
:10025D00C583CCF0A3C8C582C8CCC583CCDFEADE8C
:10026D00E880DB89828A83E493A3F208DFF980CCEE
:10027D0088F0EF60010E4E60C388F0ED2402B404E7
:10028D000050B9F582EB2402B4040050AF2323458E
:06029D0082239001FD73B5
:1002A300BB010689828A83E0225002E722BBFE0259
:0902B300E32289828A83E493228C
:1002BC00BB010689828A83F0225002F722BBFE0121
:0202CC00F3221B
:1002CE00EF4E6012EF60010EEDBB010B89828A8347
:1002DE00F0A3DFFCDEFA2289F05007F709DFFCA954
:0C02EE00F022BBFEFCF309DFFCA9F022AB
:00000001FF
